:020000040800F2
:100000001026002099010008773600080D2F0008FF
:1000100075360008350500088D4400080000000012
:1000200000000000000000000000000001010008C6
:10003000930500080000000045010008913D0008FC
:10004000B3010008B3010008B3010008B3010008C0
:10005000B3010008B3010008B3010008B3010008B0
:10006000B3010008B3010008B3010008B3010008A0
:100070003905000845050008B3010008B301000870
:10008000510500085D050008B3010008B301000830
:10009000B3010008B3010008B3010008B301000870
:1000A000B3010008293E0008B30100081D3E000806
:1000B000353E0008B3010008413E0008B3010008C6
:1000C000B3010008B3010008B3010008893B000830
:1000D000B3010008394400084544000851440008B1
:1000E000B3010008B3010008B3010008DFF80CD029
:1000F00000F0EAF800480047A54D0008102600204F
:10010000224B19680868B0E8F00F80F30988BFF344
:100110006F8F4FF0000080F311884EF00D0E704786
:100120000000000006480068006880F3088862B696
:1001300061B6BFF34F8FBFF36F8F00DF00BF00BF0B
:1001400008ED00E0EFF30980BFF36F8F0F4B1A68E3
:1001500020E9F00F106008B54FF0500080F31188CF
:10016000BFF34F8FBFF36F8F05F05EFE4FF00000BF
:1001700080F31188BDE8084019680868B0E8F00FFE
:1001800080F30988BFF36F8F704700BF38000020ED
:10019000EFF3058070470000064880470648004797
:1001A000FEE7FEE7FEE7FEE7FEE7FEE7FEE7FEE727
:1001B000FEE7FEE71B3E0008ED000008202A04DBF6
:1001C000203A21FA02F00021704721FA02F3D040D0
:1001D000C2F12002914008431946704740EA0103EA
:1001E0009B0703D009E008C9121F08C0042AFAD2ED
:1001F00003E011F8013B00F8013B521EF9D27047B1
:10020000D2B201E000F8012B491EFBD27047002258
:10021000F6E710B513460A4604461946FFF7F0FF05
:10022000204610BD30B505462A460B4612F8010B94
:1002300013F8014B08B1A042F8D01CB1002802D03D
:100240006D1CF1E7284630BD10B5002200E0521CBD
:10025000835C8C5CA34201D1002BF8D1D8B2E1B20F
:10026000401A10BD2DE9F05F0546002092469B46DE
:1002700088460646814640241BE0284641464746BC
:100280002246FFF79BFF53465A46C01A914110D3AE
:1002900011461846224600F029F82D1A67EB01088E
:1002A0004F4622460120002100F020F817EB0009FC
:1002B0004E41201EA4F10104DFDC484631462A46A7
:1002C0004346BDE8F09F0000064C074D06E0E0689D
:1002D00040F0010394E8070098471034AC42F6D38D
:1002E000FFF708FFF473000814740008202A04DBE9
:1002F000203A00FA02F1002070479140C2F1200339
:1003000020FA03F319439040704700002DE9F05F95
:1003100000255F4FDFF87C812E464FF4FA7A4FF4C8
:100320007A794FF4FA6B052D68D2DFE805F0031CEB
:1003300038587400641CE4B257A004F04FF94946E1
:10034000082004F04BFB504600F002FC03F062FB77
:10035000C8B9012003F040FBA8B952A004F03EF94F
:100360000024012517E0641CE4B251A004F036F922
:100370004946072004F032FB03F04CFB18B9022079
:1003800003F02AFB10B103F0F5FC37E045A004F0C0
:1003900025F900240225584600F0DAFBC3E748A0FF
:1003A00004F01CF903F092FB050012D048A004F001
:1003B00015F94946062004F011FB284603F0DAFC43
:1003C00000242546504600F0C3FB584600F0C0FB11
:1003D000B0E742A004F002F9032550460CE042A029
:1003E00004F0FCF8504600F0B3FB03F089FB68B161
:1003F000002503F0BFFC484600F0AAFB584600F079
:10040000A7FB0A2C8FD13E60BDE8F09F3AA004F014
:10041000E5F80425EFE701223C49002004F060F8EC
:1004200098F800004546C82805D34946BDE8F05F66
:10043000022004F0D3BA35480078401C2870002010
:1004400004F072F801221349002004F021F8297801
:10045000022003F06FFB40B1002503F08BFC5846EF
:1004600000F076FB0A2CCED064E729A004F0B6F8A1
:1004700098F800102AA004F0B1F84C464946012033
:1004800004F0ACFA20463E60BDE8F05F00F060BBCF
:10049000CC000020EB000020C7EBB0B4CAD6D6B821
:1004A0000D0A0000D6B8CEC6D5FDB3A30D0A0000D4
:1004B000C7EBD4D9B0B4D2BBB4CE0D0A0000000053
:1004C000B6D4B1C8C1BDB4CED6B8CEC60D0A0000F0
:1004D000B6D4B1C8CAA7B0DC0D0A0000B6D4B1C802
:1004E000B3C9B9A60D0A0000C9FAB3C9D6B8CEC6B9
:1004F000C4A3B0E50D0A0000C9FAB3C9D6B8CEC688
:10050000C4A3B0E5B3C9B9A60D0A0000EA000020F3
:10051000C2BCC8EBD6B8CEC6B3C9B9A60D0A000096
:10052000C2BCC8EBD6B8CEC66964CEAA3A25640D63
:100530000A000000FEE70000014800F0F9B90000E1
:100540000C040020014800F0F3B90000C8030020AB
:10055000014800F0EDB9000040030020014800F020
:10056000E7B900008403002030B590F84050012422
:10057000AC40C56B6C60046863604368102B036813
:1005800003D099600068C26030BD9A600068C160A5
:1005900030BD704770B512A004F020F803F002FAE5
:1005A00000244FF47A7540B103F0E4FB1148046075
:1005B0002846BDE8704000F0CBBA0F480470002018
:1005C00003F0B2FF01220C49002003F061FF29462D
:1005D000052004F003FA09A004F000F8E6E70000A3
:1005E000C9BEB3FDD6B8CEC6BFE2BFAACABC0D0A0B
:1005F00000000000D0000020EB000020C7E5BFD5C0
:10060000D6B8CEC6BFE2B3C9B9A60D0A0000000035
:1006100021283CD2DFE800F011131517191B1D1F0C
:10062000212325273B3B3B3B27293B3B3B2B3B3BAC
:100630002D2F3133353B3B37390016A070471AA0B8
:1006400070471EA0704722A0704726A070472AA0BE
:1006500070472EA0704732A0704736A070473AA06E
:1006600070473EA0704742A0704746A070474AA01E
:1006700070474EA0704752A0704756A070475AA0CE
:1006800070475EA0704762A0704766A070476AA07E
:1006900070470000202020202020204F4B202020C9
:1006A000202020200000000020CAFDBEDDB0FCBDDF
:1006B000D3CAD5B4EDCEF32000000000B4ABB8D05F
:1006C000C6F7C9CFC3BBD3D0CAD6D6B80000000086
:1006D000C2BCC8EBD6B8CEC6CDBCCFF1CAA7B0DC81
:1006E0000000000020D6B8CEC6CCABB8C9BBF2CC57
:1006F000ABB5AD200000000020D6B8CEC6CCABCA4A
:10070000AABBF2CCABBAFD20000000002020D6B876
:10071000CEC6CDBCCFF1CCABC2D2202000000000B1
:1007200020D6B8CEC6CCD8D5F7B5E3CCABC9D92046
:10073000000000002020D6B8CEC6B2BBC6A5C5E4D6
:10074000202020200000000020C3BBD3D0CBD1CB81
:10075000F7B5BDD6B8CEC62000000000202020CCC2
:10076000D8D5F7BACFB2A2CAA7B0DC2000000000EB
:100770002020C9BEB3FDC4A3B0E5CAA7B0DC2020C9
:100780000000000020C7E5BFD5D6B8CEC6BFE2CA7C
:10079000A7B0DC2000000000BBBAB3E5C7F8C4DA9C
:1007A000CEDED3D0D0A7CDBC0000000020B6C1D093
:1007B000B4464C415348B3F6B4ED2020000000008D
:1007C000202020CEB4B6A8D2E5B4EDCEF320202070
:1007D000000000002020CEDED0A7BCC4B4E6C6F7DF
:1007E000BAC520200000000020BCC4B4E6C6F7C48F
:1007F000DAC8DDB4EDCEF3200000000020BCC7CA8B
:10080000C2B1BED2B3C2EBB4EDCEF3200000000003
:1008100020202020D6B8CEC6BFE2C2FA2020202059
:100820000000000020202020B5D8D6B7B4EDCEF3CC
:10083000202020200000000020B7B5BBD8C8B7C8D2
:10084000CFC2EBD3D0CEF3200000000072B6FEE79B
:1008500010B590F821100022022905D004218163EF
:1008600080F82020012010BD01680B6823F00E03E2
:100870000B6001680B6823F001030B6090F84030B7
:10088000C46B012101FA03F3636080F8211080F842
:100890002020104610BD000010B590F82110002453
:1008A000022903D00421816301243DE001680A6824
:1008B00022F00E020A6001680A6822F001020A6052
:1008C0001A4A0168914201D1012121E0174A1432EC
:1008D000914201D110211BE0144A2832914201D1EA
:1008E000891515E0114A3C32914201D189140FE07B
:1008F0000E4A5032914202D14FF4803108E00B4A47
:100900006432914202D14FF4801101E04FF08071C6
:10091000064A083A5160012180F82110002180F830
:100920002010416B01B18847204610BD08000240ED
:100930002DE9F05FC16B0C6801680B68D0F840C00E
:10094000042202FA0CF2494DDFF824A1494E4A4F25
:10095000DFF828B1DFF828E122422CD05A072AD547
:100960000A68920603D40A6822F004020A60016849
:10097000A94201D1042219E0514501D1402215E0DC
:10098000B14202D14FF4806210E0B94202D14FF47B
:1009900080420BE0594502D14FF4802206E07145B8
:1009A00002D14FF4800201E04FF080622F490839F4
:1009B0004A60C16A3BE04FF0020808FA0CF818EAF6
:1009C000040F4FF000094FF0010235D05FEA837841
:1009D00032D50B689B0605D40B6823F00A030B6025
:1009E00080F821200168A94201D1022219E0514575
:1009F00001D1202215E0B14202D14FF4007210E083
:100A0000B94202D14FF400520BE0594502D14FF4E4
:100A1000003206E0714502D14FF4001201E04FF0C0
:100A20000072124908394A6080F82090816A0029D2
:100A30001AD0BDE8F05F0847082505FA0CF52542F5
:100A400012D01B0710D50B6823F00E030B6090F833
:100A50004010C36B02FA01F15960826380F82120D3
:100A600080F82090016BE2E7BDE8F09F08000240AB
:100A70001C00024030000240440002405800024086
:100A80006C00024030B528B308C813491422194439
:100A9000B1FBF2F18900C163104981630221417702
:100AA0001A6843F6F0718A43D0E900142143D0E973
:100AB00002452C432143046921434469214384694D
:100AC00021431143196000214163012242770177DC
:100AD000084630BD012030BDF8FFFDBF00000240D8
:100AE00070B5044690F82000002501280CD00120A4
:100AF00084F8200094F821600020012E06D084F8AC
:100B000020000225284670BD022070BD022684F810
:100B10002160A0632068066826F001060660204672
:100B2000FFF722FDE06A00282068016802D041F04A
:100B30000E0106E021F0040101602068016841F027
:100B40000A0101602068016841F001010160D9E7F4
:100B500070B5044600F008F90546601C02D0044850
:100B60000078044400F000F9401BA042FAD370BDA5
:100B7000280000202DE9F84FDFF8B8910024A9F1F2
:100B8000040B23460F2709F1040AABF1040EC9E058
:100B90000125A5402A40AA427DD1674ED1F804C064
:100BA000ACEB0608B44532D014DCBCF1030F3AD0EC
:100BB00009DCBCF1000F2AD0BCF1010F1CD0BCF144
:100BC000020F31D11DE0BCF1110F17D0BCF1120F93
:100BD0002AD119E0B8F5881F19D006DCB8F5803F96
:100BE00015D0B8F5801F1FD111E0B8F5001F0ED049
:100BF000B8F5041F18D10AE0CB6815E0CB681B1DBF
:100C000012E0CB6808330FE0CB680C330CE08B6844
:100C10002BB1012B4FF0080303D0456104E00423FE
:100C200002E0056100E00023FF2A01D8064601E04A
:100C300000F104064FEA840501D9A5F12005D6F894
:100C4000008007FA05FC28EA0C0803FA05F548EAD3
:100C50000508C6F800804D68ED0062D5374DAE69D5
:100C600046F00106AE61AD6924F0030605F001050A
:100C70000095334D06EB050CDCF80850A607360F3F
:100C800007FA06F825EA0805DFF8B880404503D1E1
:100C90004FF0000817E044E0DFF8AC80404502D197
:100CA0004FF001080FE0DFF8A480404502D14FF07B
:100CB000020808E0DFF89880404502D14FF00308B1
:100CC00001E04FF0040808FA06F848EA0508CCF8F5
:100CD00008804D68D9F80060ED024D4601D51643F5
:100CE00000E096432E604D68DAF80060AD0255468C
:100CF00001D5164300E096432E604D68DBF8006096
:100D0000AD035D4601D5164300E096432E604D6865
:100D1000DEF80060ED03754601D5164300E096430A
:100D20002E60641C0D682A46E5407FF431AFBDE8B3
:100D3000F88F00000804014000001110001002406C
:100D40000000014000080140000C0140001001407B
:100D5000001401408068084000D0012070470AB1AB
:100D6000016170470904FBE7014880687047000093
:100D70002800002070B5040025D094F83D0000251F
:100D800020B984F83C50204600F0E6F9242084F88D
:100D90003D002068016821F00101016020680168C0
:100DA00041F4004101602068016821F400410160C4
:100DB00000F080FB4D4A6168914201D84C4900E047
:100DC0004C49884201D2012070BD4B492368B0FBD9
:100DD000F1F15E6826F03F060E435E606368934261
:100DE00006D94FF4967359434FF47A73B1FBF3F17C
:100DF0002368491C1E6A26F03F0631431962616868
:100E0000914210D84900401EB0FBF1F2521CC2F3CF
:100E10000B02042A01D2042022E0B0FBF1F0401CB6
:100E2000C0F30B001CE0A268F2B301EBC10303EBBB
:100E30000116431EB3FBF6F35B1C43F480431B0512
:100E400049D092B301EBC10202EB0111401EB0FB8D
:100E5000F1F0401CC0F30B0040F4804040F400402F
:100E60002168CA694CF6FF739A431043C861D4E9FC
:100E7000071001432068026822F0C002114301609C
:100E8000D4E9030101432068826848F2FF339A43A2
:100E900011438160D4E9050108432168CA6822F042
:100EA000FF021043C86001E00EE016E02068016810
:100EB00041F0010101602564202084F83D00256394
:100EC00084F83E50002070BD01EB4106431EB3FB89
:100ED000F6F35B1CB3E70120C2E701EB4101401EC2
:100EE000B0FBF1F0401CC0F30B00B7E7A086010097
:100EF00080841E0000093D0040420F002DE9F84F9C
:100F00001F4690468A460446DDF82890FFF72CFFDE
:100F1000054694F83D0020287FD11923012240493D
:100F20002046009502F0D8F8002876D194F83C00CD
:100F3000012872D0012084F83C0020680168C907AC
:100F400003D1016841F0010101602068016821F4CA
:100F500000610160212084F83D00102084F83E00EB
:100F600000262664C4F824806785608D20852D487E
:100F7000E0622B464A465146204601F0DFFF90B919
:100F8000206841698069009036E02A46494620463B
:100F900002F048F950B1206C042804D1206801689F
:100FA00041F4007101600120BDE8F88F606A21689A
:100FB00000780861606A401C6062618D491E61852D
:100FC000218D491E89B2218522685369DB435B0765
:100FD0000BD451B100781061606A401C6062608D72
:100FE000401E6085208D401E20852A4649462046A9
:100FF00002F046F80028CED1208D0028C5D154F843
:101000003D0B016841F400710160202004F81E09C5
:10101000E67766770020C7E7FFE70220C4E7000015
:10102000020010000000FFFF2DE9FF4F83B09A4639
:10103000DDE9119793460446DDF84080FFF794FE02
:10104000054694F83D0020287FD11923012240490C
:101050002046009502F040F8002876D194F83C0034
:10106000012872D0012084F83C0020680168C9077B
:1010700003D1016841F0010101602068016821F499
:1010800000610160212084F83D00402084F83E008A
:1010900000262664C4F82480A4F82A90608D208558
:1010A0002C48E062CDE9007553465A462046049923
:1010B00001F092FF70B930E02A463946204602F02E
:1010C000B1F858B1206C042804D12068016841F4BB
:1010D00000710160012007B0BDE8F08F606A2168EF
:1010E00000780861606A401C6062218D491E89B2E7
:1010F0002185628D521E628522685369DB435B073E
:101100000BD469B100781061606A401C6062208D68
:10111000401E2085608D401E6085208D0028CBD12B
:101120002A463946204601F0ABFF0028CAD154F8C0
:101130003D0B016841F400710160202004F81E0994
:10114000E67766770020C6E7FFE70220C3E70000E6
:10115000020010000000FFFF10B586B000210091D2
:1011600001910291039100680F4988421AD10F4CF6
:10117000A06940F00800A061A069694600F008007D
:101180000490C02000901220019003200390084892
:10119000FFF7F0FCE06940F40010E061E06900F462
:1011A0000010049006B010BD005400400010024032
:1011B000000C014002488168027811448160704748
:1011C00028000020074810B5016841F010010160B7
:1011D000032000F0A7F80F2000F006F800F050F808
:1011E000002010BD0020024030B505461F4887B0E2
:1011F000C16941F00401C161C06906A900F00400A1
:10120000009001A800F036F90498B0B100F052F94E
:1012100040001749174AB0FBF1F11748491E026018
:10122000416040F2E7320021C0E903218160816121
:1012300000F0B2FE040003D015E000F03BF9E8E74F
:101240000D4800F0F3FE04000DD11E2000F03CF824
:10125000102D07D2002229461E2000F043F807482F
:10126000056000E0012407B0204630BD00100240B8
:1012700040420F0000080040500400202C000020D5
:101280000F4808B5816941F001018161816901F070
:1012900001010091C16941F08051C161C069002222
:1012A00000F0805000900F21901E00F01BF80548C0
:1012B000416821F0E06141F00071416008BD00002B
:1012C0000010024000000140002809DB00F01F026E
:1012D000012191404009800000F1E020C0F8001198
:1012E00070470000F0B40E4B1B680C46C3F302239A
:1012F000C3F10705042D00D90425191D072901D2C2
:10130000002300E0DB1E012606FA05F1491E2140FC
:1013100099409E40761E16403143F0BC03F082B9DE
:101320000CED00E0064900F0070208684FF6FF03E5
:10133000184040EA0220034A10430860704700004A
:101340000CED00E00000FA052DE9F0470F4605001E
:1013500061D0434E306800F00700B84209D23068CF
:1013600020F0070038433060306800F00700B842D2
:1013700051D128683B4C810712D5400703D56068DE
:1013800040F4E06060602878000703D5606840F4AE
:10139000605060606068A96820F0F00008436060F9
:1013A0002878C00728D06868012810D02168022852
:1013B00010D0890700292EDA616821F0030101436A
:1013C0006160FFF7D1FC804641F288390DE0216869
:1013D0008903EFE78901EDE7FFF7C6FCA0EB080101
:1013E000494502D90320BDE8F0876068696800F0CC
:1013F0000C00B0EB810FEFD1306800F00700B8426D
:101400000BD9306820F0070038433060306800F0B6
:101410000700B84201D00120E5E72878400705D54C
:101420006068E96820F4E06008436060287800079D
:1014300006D56068296920F4605040EAC100606008
:1014400000F058F86168084AC1F30311515CC840C4
:101450000649086006480068FFF7C6FE0020C2E79C
:1014600000200240001002403E6B000834000020C3
:101470002C0000200F2202600C4A536803F0030383
:101480004360536803F0F0038360536803F4E06340
:10149000C36052684FF4E06303EAD2020261044879
:1014A000006800F00700086070470000001002406C
:1014B000002002400448054900684968044AC1F315
:1014C0000221515CC84070473400002000100240E7
:1014D0004E6B00080448054900684968044AC1F396
:1014E000C221515CC8407047340000200010024007
:1014F0004E6B00080E4A51680E4801F00C03042B95
:1015000011D0082B0FD10C48C1F38343C903C05C31
:101510000AD55168084AC1F34041921E515C054A00
:101520005043B0FBF1F07047044948437047000056
:101530000010024000127A002E6B000800093D00E6
:101540002DE9F84F040070D02078C04DC00749D075
:101550006868C0F38100012807D06868C0F3810083
:10156000022809D16868C00306D52868800339D5E8
:1015700060680028E7D035E06068B0F5803F0BD0A8
:1015800010B1B0F5A02F11D0286820F48030286069
:10159000286820F4802002E0286840F48030286029
:1015A000606890B1FFF7E0FB06460AE0286840F467
:1015B00080202860F0E700BFFFF7D6FB801B64287F
:1015C00073D828688003F7D50CE0FFF7CDFB0646FB
:1015D00005E000BFFFF7C8FB801B6428F0D828682F
:1015E0008003F7D420789A4E80074FF001094FF01E
:1015F000000839D5686810F00C0F07D06868C0F390
:101600008100022809D16868C00306D428688007D1
:1016100014D52069012808D110E02069B0B1C6F8BE
:101620000090FFF7A1FB074605E00AE1FFF79CFBEE
:10163000C01B0228C4D828688007F7D528686169CC
:1016400020F0F80040EAC10028600DE0C6F80080F4
:10165000FFF78AFB074604E0FFF786FBC01B022862
:1016600023D828688007F7D4207800072CD579483C
:10167000A169D9B1C0F80090FFF776FB074604E0F6
:10168000FFF772FBC01B02280FD8686A8007F7D5E6
:1016900071484FF4FA510068B0FBF1F0009000BFC0
:1016A0000098411E0091FAD20EE080E0C0F8008060
:1016B000FFF75AFB074604E0FFF756FBC01B022862
:1016C00075D8686A8007F7D42078400760D5E86944
:1016D0000027C00008D4E86940F08050E861E8695C
:1016E000012700F0805000905C480168C90513D4C0
:1016F0000168834641F480710160FFF735FB824643
:1017000006E000BFFFF730FBA0EB0A0064284ED8CC
:10171000DBF80000C005F5D5E06801280AD008B163
:10172000052813D0286A20F001002862286A20F0DA
:10173000040002E0286A40F001002862E06841F2FB
:10174000883B98B1FFF710FB82460BE0286A40F017
:1017500004002862EEE700BFFFF706FBA0EB0A01DA
:1017600059455AD8286A8007F6D50CE0FFF7FCFAED
:10177000824605E0FFF7F8FAA0EB0A0159454CD87C
:10178000286A8007F6D41FB1E86920F08050E8612C
:10179000E06988B36968C1F38101022944D0022855
:1017A000C6F8608004D0FFF7DFFA044638E034E082
:1017B000FFF7DAFA074604E0FFF7D6FAC01B022863
:1017C0002BD828688001F7D4206AB0F5803F05D176
:1017D0006868A16820F4003008436860D4E9080113
:1017E0000843696821F4741108436860C6F8609082
:1017F000FFF7BAFA044606E025E000BFFFF7B4FAA7
:10180000001B022809D828688001F7D51BE000BF1B
:10181000FFF7AAFA001B022802D90320BDE8F88FBF
:1018200028688001F4D40EE00128F7D06868226AA5
:1018300000F48031914204D1616A00F47010884252
:1018400001D00120EAE70020E8E700000010024094
:1018500000004242800442423400002000700040F8
:101860007047000038B50446006842688168C94383
:101870004B0606D5CB0704D1D3435B0601D4216CBC
:1018800005E08B0708D4D3431B0605D4616C01B077
:101890002046BDE8304008478B0601D54B0646D4AC
:1018A000D3439B0643D44B060AD494F85130032B00
:1018B0003ED0636D43F004036365C368836800939F
:1018C000890609D4616D41F001016165816800916B
:1018D000016821F040010160606D002827D0206878
:1018E000416821F0E0014160012084F85100900737
:1018F00022D02068416821F003014160104DE06C66
:1019000040B14563E06CFEF7C7FF18B1606D40F071
:1019100040006065A06C002809D04563A06CFEF70C
:10192000BBFF002803D0606D40F04000606538BD0B
:10193000C1688068009038BD2046FFF791FF38BD30
:10194000953B000870B5040009D0606A002540B1DD
:1019500025616561A56294F8510040B10CE0012059
:1019600070BD6068B0F5827FF4D0E561F2E784F87D
:101970005050204600F040F8022084F851002068C2
:10198000016821F040010160A088218900F4827083
:1019900001F404410843A18901F400610843217C5A
:1019A00001F002010843217D01F001010843218B70
:1019B00001F400710843217F01F03801084394F8D5
:1019C000201001F080010843218D01F400510843EB
:1019D00021680860A069042101EA1040216848607C
:1019E0002068C16921F40061C1616565012084F846
:1019F0005100002070BD000030B585B00024009477
:101A00000194029403940068184988422BD1184825
:101A1000816941F480518161816901F480510491AF
:101A2000816941F0040181618069124D00F0040078
:101A30000490A020009002200190032003906946AA
:101A40002846FFF797F84020CDE90004694628466C
:101A50000294FFF78FF8002205212320FFF742FCB4
:101A60002320FFF731FC05B030BD000000300140FD
:101A700000100240000801402DE9F84F044690F89C
:101A80005100984616460F460025012801D0022530
:101A900098E060684FF0040BB0F5827F01D1A06838
:101AA000F8B194F85000012826D04FF0010984F8CD
:101AB0005090FFF759F98246002F7FD0002E7DD03D
:101AC00084F851B000206065A763A687E68720638D
:101AD000A086E08620646064A068B0F5004F0DD059
:101AE00016E084F851B013460A462046CDF800802F
:101AF00000F024F9BDE8F88F0220FBE720680168B8
:101B000021F0400101602068016821F480410160FA
:101B100020680168490603D4016841F04001016072
:101B2000E068D8B13BE020688168C90709D0007B34
:101B3000A16B0870A06B401CA063E08F401EE08783
:101B40000CE0FFF711F9A0EB0A01414503D3B8F10E
:101B5000FF3F03D006E0B8F1000F03D0E08F00286C
:101B6000E1D11FE003252BE020688168C90709D077
:101B7000C068A16B0880A06B801CA063E08F401E32
:101B8000E0870CE0FFF7F0F8A0EB0A01414503D332
:101B9000B8F1FF3F03D0E5E7B8F1000FE2D0E08FE6
:101BA0000028E1D152464146204601F0FBFF08B132
:101BB00020206065606D00E000E008B1012501E0D3
:101BC00084F85190002084F85000284692E72DE9CF
:101BD000F84F044690F850000026984615468A466D
:101BE00001280CD0012784F85070FFF7BDF881461A
:101BF00094F85100B346012804D002269AE002204E
:101C0000BDE8F88FBAF1000F6FD0002D6DD0032022
:101C100084F85100C4F854B0C4F830A0A586E58615
:101C2000C4F838B0A4F83CB0A4F83EB0C4F844B04E
:101C3000C4F840B0A068B0F5004F09D12068016831
:101C400021F0400101602068016841F48041016099
:101C500020680168490603D4016841F04001016031
:101C6000E068B0F5006F606803D058B3012D29D04B
:101C700049E008B1012D1FD1206B21680088C860A0
:101C800006E020688168890709D5216B0988C16051
:101C9000206B801C2063E08E401EE0860CE0FFF786
:101CA00063F8A0EB0901414503D3B8F1FF3F03D02E
:101CB00006E0B8F1000F03D0E08E0028E1D125E066
:101CC000032635E0206B21680078087306E0206861
:101CD000816889070AD5216B09780173206B401C44
:101CE0002063E08E401EE0860DE01FE0FFF73CF829
:101CF000A0EB0901414503D3B8F1FF3F03D0DFE773
:101D0000B8F1000FDCD0E08E0028E0D14A46414611
:101D1000204601F075FF08B120206065A06818B961
:101D20002068C16880680090606D08B1012601E0FC
:101D300084F8517084F850B0304661E72DE9FF4FC8
:101D400081B0044690F8500000260E9F1D46934631
:101D50004FF0010901280FD04FF0010A84F850A07C
:101D6000FFF702F8804694F85100616801280DD011
:101D7000B1F5827F08D103E0022005B0BDE8F08F05
:101D8000A16809B9042801D00226C9E002980028F8
:101D900065D0BBF1000FFBD0002DF9D094F85100B5
:101DA000042802D0052084F8510000206065C4F8A2
:101DB00038B0E587A58702992163E586A58620646A
:101DC000606420680168490603D4016841F040015D
:101DD0000160E068B0F5006F606803D0F0B3012DDA
:101DE00047D081E008B1012D3CD1206B21680088EB
:101DF000C860206B801C2063E08E401EE08631E0CE
:101E00002068816889070FD5E18E69B1B9F1010FAA
:101E10000AD1216B0988C160206B801C2063E08E91
:101E2000401EE0864FF0000920688168C9070CD089
:101E3000E18F51B1C068A16B0880A06B801CA063CA
:101E4000E08F401EE0874FF00109FEF78DFFA0EB09
:101E50000800B84206D3781C04D001E009E05BE03A
:101E600003265BE0E08E0028CAD1E08F0028C7D1AE
:101E700040E0206B216800780873206B401C2063D1
:101E8000E08E401EE0862FE02068816889070FD52C
:101E9000E18E69B1B9F1010F0AD1216B09780173A3
:101EA000206B401C2063E08E401EE0864FF000094E
:101EB00020688168C9070CD0E18F51B1C068A16B5F
:101EC0000870A06B401CA063E08F401EE0874FF0BD
:101ED0000109FEF749FFA0EB0800B84202D3781CC5
:101EE00002D0BAE7002FB8D0E08E0028CCD1E08F26
:101EF0000028C9D142463946204601F081FE18B17A
:101F00000126202060650BE0A06818B92068C16830
:101F100080680090606D08B1012601E084F851A04E
:101F2000002084F85000304627E7704770470000D3
:101F300070B590F83C20012A26D0012480F83C405E
:101F4000022280F83D2003685A689D6822F07006DE
:101F50000A6832435A600D4B02689A4208D0B2F1C7
:101F6000804F05D00A4B9A4202D00A4B9A4204D1C4
:101F7000496825F080031943916080F83D400021B5
:101F800080F83C10084670BD022070BD002C014056
:101F9000000400400008004010B5040003D094F88D
:101FA0003D0010B107E0012010BD002084F83C0086
:101FB000204600F01FF8022084F83D00211D206813
:101FC00001F044FF012084F8460084F83E0084F8C4
:101FD0003F0084F8400084F8410084F8420084F80F
:101FE000430084F8440084F8450084F83D00002054
:101FF00010BD000008B50068B0F1804F12D10A484A
:10200000C16941F00101C161C069002200F0010015
:10201000009005211C20FFF765F9BDE808401C2051
:10202000FFF752B908BD00000010024090F83D10C3
:10203000012901D001207047022180F83D1001687C
:10204000CA6842F00102CA6000680B49884208D0A1
:10205000B0F1804F05D00949884202D00849884232
:1020600004D1816801F00701062903D0016841F01D
:102070000101016000207047002C01400004004075
:10208000000800400168CA6822F00102CA600168C5
:102090000A6A41F211131A4207D10A6A9B101A42C6
:1020A00003D10A6822F001020A60012180F83D1084
:1020B0000020704770B5044690F83C0000250128C8
:1020C00017D0012684F83C60022084F83D00206887
:1020D000826822F0770222F47F42826008685028EA
:1020E00038D00DDC20284FD005DC90B3102811D15A
:1020F0004AE0022070BD302846D040280AD13BE09B
:1021000060282FD070280DD0B0F5805F03D0B0F5D7
:10211000005F12D0012584F83D60002084F83C0067
:10212000284670BDCB68D1E90121206801F0D1FEBD
:102130002068816841F0770109E0CB68D1E901218D
:10214000206801F0C6FE2068816841F4804181600A
:10215000E1E719E0CA684968206801F0CCFE502127
:10216000206806E0CA684968206801F001FF602124
:10217000206801F0B8FECEE7CA684968206801F01F
:10218000BAFE40212068F4E7226801461046F0E7D5
:102190002DE9F04100682649884247D1254C264D5B
:1021A000264F60780026C0B101283FD10021284683
:1021B00000F094FA80B2208129680A6A22F00A02AB
:1021C0000A6229680A6A42F002020A626670E178CD
:1021D000F1B1BDE8F04103F083BB0021164800F0E7
:1021E0007DFA80B2E08029680A6A22F00A020A6257
:1021F00029680A6A0A6201216170E1780029E8D140
:10220000217840F27122514300EB0110218906E050
:10221000217840F27122514300EB0110E188411A0C
:10222000A07827F810102670401CA070BDE8F0813F
:10223000002C0140B8000020A40100206C1D0020EB
:102240002DE9F041054690F83C0000260C46012897
:1022500010D0012085F83C0072B1042A1CD0082A55
:102260002CD00C2A50D00126002085F83C003046A6
:10227000BDE8F0810220FBE7D4E90012E36828689A
:1022800001F04AFE2868816921F00C01816128680B
:102290008169A26811430FE0D4E90012E36828685D
:1022A00001F078FE2868816921F440618161286825
:1022B0008169A26841EA02218161D5E72868D4E9F1
:1022C000002C277B036A016A21F480710162C169D5
:1022D00023F4007321F0030141EA0C0121F0F00C1A
:1022E00039074FF400774CEA116107EA02221A43DA
:1022F000C16102622868C16921F00C01C1612868CE
:10230000C169A26811432BE02868D4E90021E7687D
:10231000036AD0F820C02CF4805CC0F820C0D0F84C
:102320001CC023F400532CF4407C4CEA012121F41E
:10233000704C4FF6FF7101EA07314FF4005741EA44
:102340000C0107EA02321A43C16102622868C169BE
:1023500021F44061C1612868C169A26841EA022193
:10236000C16181E710B5040003D094F83D0010B1BD
:1023700007E0012010BD002084F83C00204600F05A
:102380001FF8022084F83D00211D206801F05EFD49
:10239000012084F8460084F83E0084F83F0084F869
:1023A000400084F8410084F8420084F8430084F837
:1023B000440084F8450084F83D00002010BD000072
:1023C00000B585B000210091019102910391006850
:1023D0001649884227D11648816941F4006181611C
:1023E000816901F400610491816941F00401816116
:1023F0008069694600F0040004904FF480700090FA
:102400000C48FEF7B7FB002205211920FEF76AFFF2
:102410001920FEF759FF002205211B20FEF762FF5D
:102420001B20FEF751FF05B000BD0000002C01404D
:10243000001002400008014030B50446002551B1AB
:1024400004290DD0082910D094F8410094F84520B3
:10245000012811D10EE094F83E0094F84220F7E7ED
:1024600094F83F0094F84320F2E794F8400094F881
:102470004420EDE7012A01D0012030BD022059B1EE
:10248000042912D0082919D084F8410084F84500A5
:102490000C2938D0012534E084F83E0084F842004D
:1024A0002068C26842F0020210E084F83F0084F81D
:1024B00043002068C26842F0040207E084F840004C
:1024C00084F844002068C26842F00802C260012219
:1024D000206801F0F1FC0E492068884208D0B0F174
:1024E000804F05D00B49884202D00B49884204D165
:1024F000816801F00701062903D0016841F001015C
:102500000160284630BD2068C26842F01002DDE755
:10251000002C0140000400400008004070B5044653
:10252000006801694FF00005C943890715D4C168E7
:10253000C943890711D4E91E016101202077206871
:1025400080698007204602D0FFF722FE04E000F0F9
:1025500098F8204600F096F8257720680169C9436D
:10256000490717D4C168C943490713D46FF0040160
:102570000161022020772068806910F4407F2046A6
:1025800002D0FFF705FE04E000F07BF8204600F0E3
:1025900079F8257720680169C943090716D4C1680D
:1025A000C943090712D46FF00801016104202077A4
:1025B0002068C0698007204602D0FFF7E9FD04E0EB
:1025C00000F05FF8204600F05DF82577206801698B
:1025D000C943C90617D4C168C943C90613D46FF0EB
:1025E00010010161082020772068C06910F4407F45
:1025F000204602D0FFF7CCFD04E000F042F8204670
:1026000000F040F8257720680169C943C90708D15F
:10261000C168C943C90704D1891E0161204600F081
:1026200033F820680169C943090609D4C168C94360
:10263000090605D46FF0800101612046FFF775FCA3
:1026400020680169C943490609D4C168C9434906DC
:1026500005D46FF040010161204600F054F8206875
:102660000169C94389060BD4C168C943890607D4E7
:102670006FF0200101612046BDE87040FFF756BCB5
:1026800070BD7047704700000068104988420FD144
:102690000F48C17800290AD10178491CC9B20170DC
:1026A000032904D1002101700121C170017170471B
:1026B0000849884201D1FEF77DBDB0F1804FF6D1C7
:1026C00005480178491C017070470000002C01404A
:1026D000B800002000080040000000200246002052
:1026E00041B1042909D008290AD00C2901D1106868
:1026F000006C70471068406B70471068806B7047C3
:102700001068C06B7047704738B5044690F84200B7
:10271000202801D0022038BD61B15AB101202063C8
:1027200000206063204601F0E7FD0028F3D1216B13
:10273000012901D0012038BD21680A68496800914B
:1027400021680C3151E8002F42F0100241E80023CB
:10275000002BF5D138BD00002DE9F0410D464F4961
:10276000884274D1E9B24E4802F014FB4B49002074
:102770004B4C7C3904E063680A5C1A54401CC0B2BC
:10278000A842F8D347A16068FDF75EFD474D4FF4BE
:102790007A77002845D046A16068FDF755FD0126EF
:1027A00000284AD044A16068FDF74EFD00284FD0B4
:1027B00042A16068FDF748FD00284ED040A1606846
:1027C000FDF742FD002852D03EA16068FDF73CFDB8
:1027D00000284FD03CA16068FDF736FD00284CD0A2
:1027E0003AA16068FDF730FD002849D038A1606843
:1027F000FDF72AFD002846D036A16068FDF724FDCC
:10280000A0B3052234A1254800F034FB244802F08F
:102810006FF9BDE8F041214932227C391F48FFF7AA
:1028200073BF28680128F1D13946042002F0D6F898
:10283000002006221BA12860E5E728680028E5D1D2
:10284000394602F0CBF8042225A12E60DBE722E016
:102850002548042218A10660D5E7244839460660B9
:10286000052002F0BBF8052221A1CCE70EE0394695
:1028700005200DE039460A200AE039460F2007E01E
:102880003946142004E03946192001E039461E205B
:1028900003F034F8BAE7BDE8F0810000B002002090
:1028A00020000020756E6C6F636B0000C800002074
:1028B0006C6F636B6564000061646400636C650049
:1028C0006F6E650074776F0074687200666F7500D4
:1028D00066697600736978006572726F7200000035
:1028E0006C6F636B00000000CC000020D000002063
:1028F000636C65617200000070470000F8B5016804
:1029000004460868CA684B6910F00F0F4FF00005C5
:1029100059D003F0010602F49077374365D0C10720
:1029200005D0D10503D5616C41F001016164410717
:1029300005D5D90703D0616C41F0020161648107BC
:1029400005D5D90703D0616C41F00401616401072A
:1029500007D502F02001314303D0616C41F008013A
:102960006164616C00293AD0800604D5900602D5D6
:10297000204601F004FC20684069616CC0F38010BF
:10298000090700D460B3204601F0C4FB2068406909
:10299000400621D52068143050E8001F21F0400186
:1029A00040E80012002AF5D1E06BA8B16D494163FF
:1029B000E06BFDF771FF002811D0E06B416B01B0B7
:1029C000BDE8F040084783060FD593060DD5204695
:1029D000BDE8F84001F0D3BB2046FFF78DFFF8BDFE
:1029E0002046FFF789FF6564F8BD266B2023012E82
:1029F0007CD1C6067AD5D60678D508684868009096
:102A000048694FF00206400640D5E16B086840680F
:102A10000004000CE8D0A28D8242E5D9E0858869E7
:102A200020282DD020680C3050E8001F21F4807140
:102A300040E80012002AF5D12068143050E8001F49
:102A400021F0010140E80012002AF5D1206814307D
:102A500050E8001F21F0400140E80012002AF5D1A3
:102A600084F84230256320680C3050E8001F21F0C4
:102A7000100140E80012002AF5D1E06BFDF7E8FEF6
:102A80006663A08DE18D401A81B22AE0A08DE18DB0
:102A9000401A81B2E08D0028A6D00029A4D0226877
:102AA0000C3252E8000F20F4907042E80007002F2B
:102AB000F5D12068143050E8002F22F0010240E8E0
:102AC0000027002FF5D184F84230256320680C30B0
:102AD00050E8002F22F0100240E80023002BF5D12F
:102AE00066632046FFF738FEF8BDFFE705062BD5E5
:102AF000150629D594F841002128F5D1A068B0F534
:102B0000805F01D12069B0B1206A411C2162216837
:102B100000784860E08C401E0004000CE084E3D1A3
:102B20002068C16821F08001C1602068C16841F05F
:102B30004001C160D8E7206A0088C0F308004860FF
:102B4000206A801C2062E5E74006CDD55006CBD533
:102B5000CA68204622F04002CA6084F8413000F082
:102B6000C5F9C1E7CB3F000870B5040004D094F864
:102B70004100002510B106E0012070BD84F84050EE
:102B8000204600F023F8242084F841002068C16822
:102B900021F40051C160204601F052FB2068016918
:102BA00021F4904101612068416921F02A014161CD
:102BB0002068C16841F40051C1606564202084F838
:102BC000410084F842006563002070BD2DE9F043A8
:102BD00085B000250095019502950395044603688C
:102BE0006E486D4E02210322DFF8B4810715B3420F
:102BF00025D1836943F480438361836903F480436F
:102C00000493836943F0040383618069039200F0B5
:102C1000040004900802CDE9000169464046FDF732
:102C2000A9FFCDE90075694640460295FDF7A2FF70
:102C3000002205212520FEF755FB252053E0DFF873
:102C400064C180264FF01009634551D1C36943F434
:102C50000033C361C36903F400330493836943F011
:102C6000040383618069039200F00400049004204F
:102C7000CDE90001694647464046FDF77BFF082045
:102C8000CDE90005694638460295FDF773FF474FC9
:102C90004548C7E90005C7E902563D617D61BD6150
:102CA0003846FD61FDF7EEFE08B1FDF7CFFDE763A5
:102CB0007C623E4F3C4844371430C7E902563D61C0
:102CC0007D61BD61FD61C7E900093846FDF7DAFEA7
:102CD00008B1FDF7BBFDA7630022052126207C6219
:102CE000FEF700FB2620FEF7EFFA05B0BDE8F08303
:102CF000DFF8BCC06345F8D1C36943F48023C361E6
:102D0000C36903F480230493836943F00803836158
:102D10008069CDE9007100F00800CDE90320254F5E
:102D200069463846FDF726FFF814CDE900056946E7
:102D300038460295FDF71EFF1C4F1B4888373C386C
:102D4000C7E90005C7E902563D617D61BD613846AE
:102D5000FD61FDF797FE08B1FDF778FDE7637C6242
:102D6000124F1148CC375038C7E902563D617D619A
:102D7000BD61FD61C7E900093846FDF783FE08B172
:102D8000FDF764FDA7630022052127207C62FEF782
:102D9000A9FA2720A7E700000038014000100240F0
:102DA00000080140004400406C0002404003002045
:102DB00000480040000C014090F84230202B01D028
:102DC0000220704721B11AB10023036301F0DCBA7D
:102DD00001207047704770472DE9F843044690F88A
:102DE00041001F4616460D46202802D00220BDE8AD
:102DF000F8837DB176B100206064212084F8410021
:102E0000FDF7B2FFA6848046E684A068B0F5805F37
:102E100002D003E00120EAE7206910B12E46002528
:102E20000EE000260CE08021204601F0C8FAA0B98F
:102E3000AEB116F8010B21684860E08C401EE084BA
:102E4000E08C43464FF0000200970028EBD14FF092
:102E50004001204601F0B3FA30B10320C7E735F84E
:102E6000020BC0F30800E6E7202084F841000020B0
:102E7000BDE7000070B5044690F84100202801D05D
:102E8000022070BD49B342B32162A284E2840020D3
:102E90006064212384F84130A56B114BAB62A56BB4
:102EA000104BEB62A56B104B2B63A36B586325682B
:102EB00013462A1DA06BFDF713FE21686FF040003A
:102EC00008602068143050E8001F41F0800140E89D
:102ED0000012002AF5D1002070BD012070BD000055
:102EE000C94000080B410008DB3F000870477047ED
:102EF00010B5054C2079002805D001F013FE01F033
:102F000087FE0020207110BDB8000020FEE7016898
:102F10004A69D24352050FD46FF480624A6100219E
:102F200040F8301F202242738173026942F004028C
:102F3000026101730120704700207047F8B5044614
:102F4000C06A1E460D461746082807D0012805D03E
:102F500010F5803F02D0206B122804D12068016850
:102F600041F480710160134600224FF001112046A8
:102F7000009600F0B1F840B120680068C00502D5A5
:102F80004FF4007020640320F8BD2069B0F5804F35
:102F90000ED00620216800EAD51040F0F00008614C
:102FA00033463A460B49204600F0DEF878B902E095
:102FB00005F0FE0000E0E8B22168086105493346EB
:102FC0003A46891F204600F0CFF80028DCD00120C7
:102FD000F8BD0000080001002DE9F8430446006830
:102FE0000D46DDE9089701689846164641F4807160
:102FF00001604B4600224FF001112046009700F07F
:103000006BF848B120680068C00502D54FF4007025
:1030100020640320BDE8F883216805F0FE00086104
:103020003B464A461549204600F09EF888B920687C
:103030004169806900903A464946204600F0F2F81E
:1030400048B1206C042804D12068016841F4007163
:1030500001600120DEE7F5B2B8F1010F09D0216867
:10306000300A08613A464946204600F0DBF800285D
:10307000E7D1206805610020CCE7000002000100D4
:1030800070B516460D4604461EE02046FFF73FFF8A
:1030900008B1012070BD681C16D0FDF765FE801BCD
:1030A000A84200D885B920684069C04340070BD5C5
:1030B000002044F8300F20216173A073216941F092
:1030C000200121612073E4E720684069C043400784
:1030D000DBD4002070BD00002DE9F047984617466C
:1030E0000D460446C1F30746DDF820902AE000BFF4
:1030F000B8F1FF3F26D0FDF737FEA0EB09014145AF
:1031000002D8B8F1000F1DD12068012E16D08069B9
:1031100025EA00000004000C12D00020B84211D1B2
:10312000002044F8300F20216173A073216941F021
:103130002001216120730120BDE8F0874069E7E7A5
:103140000120EBE72068012E0AD0806925EA000003
:103150000004000C06D00020B842C9D00020EBE7E4
:103160004069F3E70120F7E72DE9F0479846164656
:103170000D4604464FF000094FF0200AC1F30747FF
:1031800023E020684069C043400515D420680168E9
:1031900041F40071016021686FF480604861C4F8F7
:1031A000309084F83DA084F83E90216C41F00401F9
:1031B000216484F83C9021E0701C06D0FDF7D4FD1A
:1031C000A0EB0800B04203D816B1012F1FD021E0B8
:1031D0002068012F15D0806925EA00000004000C4A
:1031E00018D000BF44F8309F84F80DA084F80E90EA
:1031F000216941F02001216184F80C900120BDE893
:10320000F087406925EA00000004000CEAD120683C
:10321000406901E02068806925EA00000004000C94
:10322000AFD1ECE770B516460D4604461EE02046C9
:10323000FFF76DFE08B1012070BD681C16D0FDF7C8
:1032400093FD801BA84200D885B920684069C0431F
:1032500000060BD5002044F8300F20216173A073C5
:10326000216941F0200121612073E4E72068406971
:10327000C0430006DBD4002070BD00007CB50546CD
:10328000EF208DF80000154C01208DF801006168D9
:10329000080E8DF80200080C8DF80300080A8DF85E
:1032A000040007208DF805108DF8060000268DF823
:1032B000076026700BE00120FDF74AFC207830B152
:1032C000267069460648FCF7ADFF002804D16D1E44
:1032D0002D042D0CEFD100207CBD0000D400002077
:1032E0007C1E0020154808B5416941F0010141618B
:1032F0004069002200F00100009005210C20FDF73C
:10330000F1FF0C20FDF7E0FF002205210D20FDF765
:10331000E9FF0D20FDF7D8FF002205211020FDF761
:10332000E1FF1020FDF7D0FF002205211120FDF75D
:10333000D9FFBDE808401120FDF7C6BF00100240CC
:1033400010B500F0BDF900F097F900F031F900F088
:103350004BF90121084602F0EDFD154C012160609A
:10336000084602F0E7FDA060124A0021124801F071
:10337000A9FD104AE06024320021104801F0A2FDAE
:103380000C4A2061483200210D4801F09BFD094A9A
:1033900060616C3200210B4801F094FD054AA06188
:1033A00090320021084801F08DFDE06110BD000061
:1033B00000000020786A000819590008654D0008CF
:1033C000F9490008994900080139000830B585B06D
:1033D00000241C480094019402940394816941F0F4
:1033E00020018161816901F020010491816941F02E
:1033F00004018161816901F004010491816941F056
:10340000080181618069104D00F0080004900122DC
:1034100010212846FDF7A3FC10200121CDE9000171
:103420000320CDE9021069462846FDF7A3FB0220E0
:10343000CDE90004029069460448FDF79BFB05B006
:1034400030BD00000010024000080140000C0140A7
:103450000D4810B50B4901600C49416000214FF443
:1034600080428160C0E9031241618161C1610162F2
:10347000FDF780FC002803D0BDE81040FDF7E6B959
:1034800010BD000000540040F8000020A08601009C
:10349000104810B50E4901604FF48271416000215F
:1034A0008160C1604FF400720161C0E90512082219
:1034B000C0E90721416281620A21C162FEF742FA36
:1034C000002803D0BDE81040FDF7C0B910BD0000D2
:1034D000003001404C01002010B586B0002419488E
:1034E0000594049400940194029415490394016096
:1034F0004721C0E9011442F20F71C0E90314802191
:10350000C0E90541FEF72EFF08B1FDF79FF90494CD
:1035100004A90C480594FEF70BFD08B1FDF796F9D8
:103520000120CDE900400294002269460548039439
:10353000FEF786FE002801D0FDF788F906B010BD21
:10354000002C0140A401002010B586B000241748CB
:10355000009401940294039404944FF080410594E4
:10356000016041F61F41C0E9011442F20F71C0E948
:10357000031480218161FEF70FFD08B1FDF766F9A4
:103580004FF48050009069460848FEF793FD08B15B
:10359000FDF75CF9049404A904480594FEF7C8FCFF
:1035A000002801D0FDF752F906B010BDEC01002053
:1035B0000C4810B50A4901604FF4165141600021D2
:1035C00081600C22C160C0E904128161C161FFF712
:1035D000CBFA002803D0BDE81040FDF737B910BD85
:1035E00000380140680200200C4810B50A4901600B
:1035F0004FF416514160002181600C22C160C0E986
:1036000004128161C161FFF7AFFA002803D0BDE861
:103610001040FDF71BB910BD00440040B00200206F
:103620000C4810B50A4901604FF461414160002126
:1036300081600C22C160C0E904128161C161FFF7A1
:1036400093FA002803D0BDE81040FDF7FFB810BD85
:1036500000480040F802002001B5FF23012269461E
:103660000348FFF7B9FB002800D0012008BD000087
:10367000F8020020FEE7FEE710B5A0B0002480218C
:103680006846FCF7C4FD0021204600F0F5F88021D3
:10369000684600F025F9641CE4B2082CF3D320B08E
:1036A00010BD70B50D46044606E02022294620468E
:1036B00000F0A8F8641CE4B2102CF6D370BD000032
:1036C00010B50224202000F0F7F8204600F0F4F8AE
:1036D0001F4804703F24A82000F0EEF8204600F0B8
:1036E000EBF80024D32000F0E7F8204600F0E4F8DF
:1036F000402000F0E1F8A12000F0DEF8C82000F042
:10370000DBF80021084600F0A1F87F24812000F0BA
:10371000D3F8204600F0D0F8A42000F0CDF8A62081
:1037200000F0CAF8D52000F0C7F8802000F0C4F8F7
:103730008D2000F0C1F8142000F0BEF80021012017
:1037400000F084F8BDE81040AF2000F0B5B80000EC
:10375000B0000020F0B589B00024074620466D4631
:1037600004AE002A08DA4FF02D038DF800304FF038
:103770000104C2F1000214E006D14FF030008DF8D0
:1037800000004FF001041AE04FF00A0C92FBFCF32A
:103790000CFB132392FBFCF203F13003335400F1D2
:1037A0000100002AF0D108E006EB0002A0F10100C0
:1037B00012F8012C2A5504F101040028F4D14FF02D
:1037C000000028552A46384600F003F809B0204684
:1037D000F0BD2DE9F04117460E46044600250BE0EA
:1037E0003146204600F00EF8641CE4B20F2C02D9DA
:1037F0000024B61CF6B26D1C7A5D002AF0D1284672
:10380000BDE8F08170B51646C206150E0C460729B4
:1038100018D80F2816D82946204600F02DF80A4857
:10382000082100EB0610064600F05AF8641CE0B2CE
:10383000294600F021F806F10800BDE87040082193
:1038400000F04EB870BD0000566B000870B50C4615
:10385000050001D0012D0ED10CB1012C0BD1DA20C5
:1038600000F02AF8280100EB4410BDE87040801CED
:10387000C0B200F021B870BD70B50E4D0C4629786D
:10388000022905D1072803D8B030C0B200F014F8DF
:10389000287802280CD17F2C0AD804F00F0000F001
:1038A0000BF8102000EB1410BDE8704000F004B8D5
:1038B00070BD0000B00000201CB500218DF8041080
:1038C0008DF805004FF4FA7000900448022301AA15
:1038D00078214068FDF712FB1CBD0000B0000020FD
:1038E0000EB54FF4FA728DE8070004480123402218
:1038F00078214068FDF798FB0EBD0000B000002065
:10390000254D264C4FF47A7602212846FDF722FAFF
:10391000012808D02248FEF7B5FB002020603220A5
:1039200002F03EF9F0E7606801F0EBF81C48FEF7A2
:103930007DFB022100202268FFF70CFFA06801F048
:10394000E0F822681E2A0ED03C2A10D05A2A12D043
:10395000782A14D018DD4FF01E0092FBF0F100FB26
:10396000112060B110E031464FF009000AE0314605
:103970004FF00A0006E031464FF00B0002E03146FE
:103980004FF00D0001F02AF8A06801F0A3FF606875
:1039900001F0A0FFC3E70000000C01400000002080
:1039A000EC01002010B500F0C9F900F0A5F90120E4
:1039B000FFF752FE032000F0D1F90D20FFF74CFE77
:1039C000112000F0B1F94FF4FA60FFF757FC08B18D
:1039D000407A10BDFF2010BD10B5044600F0AEF9CE
:1039E00000F08AF90120FFF737FE042000F0B6F955
:1039F0000220FFF731FE2046FFF72EFEE01D00F00B
:103A000093F94FF4FA60FFF739FC08B1407A10BD22
:103A1000FF2010BD10B500F091F900F06DF9012004
:103A2000FFF71AFE032000F099F90120FFF714FEBA
:103A3000052000F079F94FF4FA60FFF71FFC08B198
:103A4000407A10BDFF2010BD2DE9F0411E461446FE
:103A50000D46074600F072F900F04EF90120FFF71D
:103A6000FBFD082000F07AF91B20FFF7F5FD384632
:103A7000FFF7F2FD280AFFF7EFFDE8B2FFF7ECFDD4
:103A8000200AFFF7E9FDE0B2FFF7E6FD07EB15209E
:103A9000E9B2084400EB1420E1B20844243000F0FD
:103AA00043F94FF4FA60FFF7E9FB58B1C27A837A21
:103AB000417A02EB03223280427B007B02EB002042
:103AC000708000E0FF210846BDE8F08110B500F0ED
:103AD00035F900F011F90120FFF7BEFD032000F0D9
:103AE0003DF90320FFF7B8FD072000F01DF94FF462
:103AF000FA60FFF7C3FB08B1407A10BDFF2010BD8C
:103B000010B500F01BF900F0F7F80120FFF7A4FD55
:103B1000032000F023F90520FFF79EFD092000F0A7
:103B200003F94FF4FA60FFF7A9FB08B1407A10BD22
:103B3000FF2010BD70B50C46054600F0FFF800F000
:103B4000DBF80120FFF788FD062000F007F90620CA
:103B5000FFF782FD2846FFF77FFD200AFFF77CFD77
:103B6000E0B2FFF779FD05EB1420E1B208440D3017
:103B700000F0DAF84FF4FA60FFF780FB08B1407A02
:103B800070BDFF2070BD00000148FDF76BBE000056
:103B90004C01002010B5406A0021C187C186FDF7A5
:103BA0005FFE10BDF8B5044640684FF4827398423A
:103BB00017D1A0684FF48065B0F5004F01D0A8423E
:103BC0000FD12068066826F04006066060689842BB
:103BD00007D1A068A84204D100920B46002201211F
:103BE00003E000920B4600228021204600F028F8D6
:103BF000002804D0606D40F0200060650320F8BD0F
:103C000038B50B46009204460022802100F018F8D7
:103C1000002804D0606D40F020006065032038BDAE
:103C2000002210210148FDF79AB800000008014069
:103C3000012210210148FDF792B800000008014060
:103C40002DE9F8431E46914688460446089DFDF737
:103C50008BF8401B351AFDF787F8074625480068A2
:103C6000C0F3CB30684338E0701C37D0FDF77CF8E8
:103C7000C01BA84203D215B1009860B32CE02068A5
:103C8000416821F0E00141606068B0F5827F0BD1AE
:103C9000A068B0F5004F02D0B0F5806F04D1206865
:103CA000016821F040010160A06AB0F5005F09D110
:103CB0002068016821F4005101602068016841F426
:103CC00000510160012084F85100002084F8500068
:103CD0000320BDE8F8830025401E0090206881681D
:103CE00038EA010004D000214945BDD10020F0E7A9
:103CF0000121F9E73400002010B50A4C6068000E7D
:103D0000FFF7AAFC6068C0F30740FFF7A5FCA08896
:103D1000C0F30720FFF7A0FC2079BDE81040FFF7B3
:103D20009BBC0000D400002010B50446000AFFF739
:103D300093FCE0B2BDE81040FFF78EBC10B54FF425
:103D4000C8710548FCF763FAEF20FFF785FCBDE872
:103D500010400120FFF780BC7C1E002010B50446F7
:103D6000C0F30720FFF778FCE0B2BDE81040FFF792
:103D700073BC000010B5FCF74BFC0146BDE81040D9
:103D800001A000F02BBC000025730D0A000000000C
:103D900010B5502080F31188BFF34F8FBFF36F8FA2
:103DA00002F08CFC18B104494FF0805008600020EC
:103DB00080F3118810BD000004ED00E030B58FB035
:103DC00028216846FCF723FA14210AA8FCF71FFAF9
:103DD00001210804CDE90010002402940225049179
:103DE000CDE907504FF4E01009906846FDF7A8FBB5
:103DF00008B172B6FEE70F20CDE90A054FF48060E6
:103E0000CDE90C4002210AA80E94FDF79DFA002886
:103E100001D072B6FEE70FB030BD70470148FEF723
:103E20007DBB0000A40100200148FEF777BB000025
:103E3000A40100200148FEF771BB0000EC01002046
:103E40000148FEF76BBB000050040020F0B502688B
:103E5000164B174C174D4FF08047984205D0B8428B
:103E600003D0A04201D0A84203D122F070064A68D4
:103E70003243984205D0B84203D0A04201D0A842B4
:103E800003D122F44074CA6822434C6922F08002B4
:103E9000224302608A68C2620A688262984201D143
:103EA0000969016301214161F0BD0000002C01405E
:103EB000000400400008004010B501F01F0301217C
:103EC000046A99408C430462016A9A40114301627A
:103ED00010BD10B5846842EA032224F47F440A43EB
:103EE0002243826010BD826822F070020A4342F0D1
:103EF00007018160704710B5036A046A24F0010469
:103F00000462846924F0F00444EA021423F00A02F3
:103F10000A438461026210BD70B5056A046A24F028
:103F20000104046284690F4EB04208D0B0F1804FA2
:103F300005D00D4EB04202D00C4EB04203D124F059
:103F40000304144301E044F001041A0724F0F004D0
:103F500044EA126225F00A0301F00A011943826162
:103F6000016270BD002C01400004004000080040C8
:103F700010B5036A046A24F010040462846923F013
:103F8000A00324F4704444EA023243EA011182613E
:103F9000016210BD30B5046A056A25F0100505629E
:103FA000856925F4407545EA022222F470454FF6F2
:103FB000FF7202EA033224F0A0032A43A02404EA99
:103FC000011119438261016230BD10B5406A0021C0
:103FD000C185C184FEF790FC10BD70B5446A2068AD
:103FE000406994F84110C0F3C0100025212904D184
:103FF00018B1E584204600F0B4F82068406994F8D0
:104000004210C0F38010222904D118B1E585204662
:1040100000F080F8606C40F0100060642046FEF70D
:104020006BFC70BD10B50146406A096809684FF025
:10403000000289062ED4C28501680C3151E8003F88
:1040400023F4807341E80034002CF5D10168143169
:1040500051E8003F23F0010341E80034002CF5D182
:104060000168143151E8003F23F0400341E8003477
:10407000002CF5D1202180F84210016B012909D1D3
:1040800001680C3151E8003F23F0100341E800348F
:10409000002CF5D14263016B012902D0FEF79AFE94
:1040A00010BD818DFEF758FB10BD10B5406A01218F
:1040B0004163016B012902D0FEF78DFE10BD818D99
:1040C0004908FEF749FB10BD10B50146406A096872
:1040D0000968890616D40021C1840168143151E8A9
:1040E000002F22F0800241E80023002BF5D1016867
:1040F0000C3151E8002F42F0400241E80023002B30
:10410000F5D110BDFEF7F2FE10BD10B5406AFEF706
:10411000EEFE10BD01680C3151E8002F22F49072C0
:1041200041E80023002BF5D10168143151E8002F3C
:1041300022F0010241E80023002BF5D1016B012997
:1041400009D101680C3151E8002F22F0100241E83A
:104150000023002BF5D1202180F8421000210163BB
:10416000704701680C3151E8002F22F0C00241E88D
:104170000023002BF5D1202180F84110704708B5AD
:1041800090F84210222901D0022008BD82684FF425
:1041900080539A4201D1016921B1816A9A421BD0B0
:1041A0004AB10AE00268816A5268C2F308020A80D2
:1041B000816A891C08E0026972B10268526802F0E3
:1041C0007F020A70816A491C8162C18D491E0904FF
:1041D000090CC18503D01BE002685268F1E7016851
:1041E000CA6822F02002CA600168CA6822F480729C
:1041F000CA6001684A6922F001024A61202180F800
:10420000421000214163026B012A03D0FEF7E2FD58
:10421000002008BD016301680C3151E8002F22F035
:10422000100241E80023002BF5D101680A68D2068C
:1042300002D50A6849680091818DFEF78DFAE7E79B
:1042400070B5044600680169E26821F440511143E9
:1042500001612169A0680843616908432168CA684F
:1042600041F20C639A430243CA6020684169A26923
:1042700021F44071114341611E492068884202D1F6
:10428000FDF728F901E0FDF715F900EBC00101EB9E
:104290000012606864218000B2FBF0F3B3FBF1F31D
:1042A0006FF018067343B2FBF0F5B2FBF0F605EBC6
:1042B0008305322303EB0515B5FBF1F5B6FBF1F6EB
:1042C00005F0F00505EB0615B2FBF0F6B2FBF0F0D9
:1042D000B0FBF1F06FF01802504306EB800003EBE7
:1042E0000010B0FBF1F0216800F00F002844886056
:1042F00070BD00000038014038B5816204468285F7
:10430000002013466064222284F84220E56B1B4A99
:10431000AA62E56B1A4AEA62E56B1A4A2A63E26B03
:1043200050630A462168E06B091DFCF7D9FB206841
:10433000016840680090206948B120680C3050E85E
:10434000001F41F4807140E80012002AF5D1206876
:10435000143050E8001F41F0010140E80012002A2B
:10436000F5D12068143050E8001F41F0400140E8CA
:104370000012002AF5D1002038BD000025400008B9
:10438000AB400008DB3F000881628285C2850021C6
:104390004164222180F84210016921B10168CA6894
:1043A00042F48072CA6001684A6942F001024A61BF
:1043B0000068C16841F02001C160002070472DE90C
:1043C000F041984617460E460446069D27E0681CB5
:1043D00025D02DB1FCF7C8FCA0EB0800A8421ED9DF
:1043E00020680C3050E8001F21F4D07140E8001222
:1043F000002AF5D12068143050E8001F21F0010197
:1044000040E80012002AF5D1202084F8410084F809
:104410004200002084F840000320BDE8F0812068BD
:10442000006836EA000004D00020B842CFD0002057
:10443000F3E70120F9E700000148FEF75FBA00004A
:10444000680200200148FEF759BA0000B0020020BF
:104450000B4982B008680268D243D2060CD40268C5
:10446000406800904FF4C870C885064888620649C5
:104470000120087002B07047014802B0FEF73EBA52
:10448000F80200207C1E0020D4000020FEE700007F
:10449000F8B50D4610A10023096800918DF8013090
:1044A0008DF8023014468DF8030000F083F8FFF712
:1044B000B7FB4FF47A763346042269460748FDF786
:1044C00086FB3346224629460448FDF780FBFFF76A
:1044D000AFFB00F049F8F8BD020000004C010020DD
:1044E000F8B50D460EA114460968002200918DF81A
:1044F00001208DF802208DF80300FFF791FB4FF4A7
:104500007A763346042269460648FDF760FBA2B27C
:10451000334629460348FDF7AFFAFFF789FBF8BD9C
:10452000030000004C01002008B50DA109680091AE
:1045300000218DF801108DF802108DF8030000F0B5
:1045400039F8FFF76DFB4FF47A730422694605488A
:10455000FDF73DFBFFF76CFB00F006F808BD00001F
:10456000200000004C0100207CB500208DF80000E8
:104570000EA042F2107400680190FFF751FB4FF457
:104580007A752B46012201A90948FDF720FB2B462D
:10459000012269460648FDF76FFA641E03D09DF8B4
:1045A0000000C007F3D1FFF743FB7CBD050000000E
:1045B0004C01002008B507A000680090FFF730FB11
:1045C0004FF47A73012269460348FDF700FBFFF7B9
:1045D0002FFB08BD060000004C0100200FB4054B66
:1045E00010B503A9044A029800F03CF810BC5DF82D
:1045F00014FB0000854A0008EC0000200FB4084BB3
:1046000010B504A902AA039800F02CF8044602A9E8
:10461000002000F087F9204610BC5DF814FB000074
:10462000254900080907090E002804DB00F1E020F5
:1046300080F80014704700F00F0000F1E02080F8CF
:10464000141D704702E008C8121F08C1002AFAD1E1
:1046500070477047002001E001C1121F002AFBD102
:10466000704700002DE9FF4F8DB09B460F46044672
:10467000002606E025280BD05A460F999047641C67
:10468000761C20780028F5D111B03046BDE8F08FB7
:104690000025A8460122984900E0054314F8013F8F
:1046A000203B02FA03F00842F7D120782E2817D1D8
:1046B00014F8010F45F004052A280ED06FF02F02E0
:1046C0002078A0F1300109290AD808EB880102EB13
:1046D000410100EB0108641CF2E757F8048B641CED
:1046E00020786C280DD004DC4C2812D06A2811D117
:1046F00004E074280DD07A280CD10AE045F40015A6
:1047000007E0617845F48015814202D1641C05F50B
:104710008015641C2278692A45D008DC002AB3D0B1
:10472000582A69D0632A10D0642A08D13BE0702A45
:1047300067D0732A13D0752A5CD0782A5CD01046D3
:104740005A460F999047761CD3E017F8040B8DF862
:10475000000000208DF80100E946012003E057F831
:10476000049B4FF0FF3069074FF0000501D40AE0C9
:104770006D1C45450DDA8542FADB19F80510002954
:10478000F6D106E06D1C8542FCDB19F80510002906
:10479000F8D12E4404E019F8010B5A460F999047BE
:1047A0006D1EF8D2A5E00A200021CDE90801C5F36D
:1047B000025002280DD001CFC117031E71F1000372
:1047C0000DDA4FF0000CD0EB0C006CEB01012D2347
:1047D00008E0FF1D27F00707F7E80201EDE72B05CA
:1047E00004D52B238DF8283001233BE0EB0739D08B
:1047F0002023F7E70A2000E010200021CDE908017E
:1048000007E01020002145F00405CDE908014FF034
:104810000808C5F3025002280FD001CF00214FF045
:10482000000A2B071FD5702A0DD0DDE908C38CF0D4
:10483000100C5CEA030C0CD015E0FF1D27F00707F5
:10484000F7E80201EBE740228DF828204FF0010A3B
:104850000BE050EA010306D030238DF828308DF8A4
:10486000292002239A46582A04D024A20DF12009B7
:104870000B9209E026A2F9E7DDE90823FBF7F2FC39
:104880000B9B9B5C09F8013D50EA0102F4D1ADEBB2
:10489000090020300890680701D44FF001080899FA
:1048A000884502DDA8EB010000E0002080460025DD
:1048B00006E00AA85A46405D0F9990476D1C761C89
:1048C0005545F6DB04E030205A460F999047761C98
:1048D000B8F10001A8F10108F5DC05E019F8010BB9
:1048E0005A460F999047761C0899481E089000294F
:1048F000F4DC641CC5E600000928010030313233C5
:10490000343536373839616263646566000000000B
:1049100030313233343536373839414243444546F5
:10492000000000000A68531C0B6010707047401AAA
:1049300000D54042B0F5967F01DA01207047002093
:104940007047000070B54FF4C87210491048FEF768
:1049500033FA0F480068C16841F01001C1600B4D87
:1049600001206872FFF7EAF9FFF7C6F9094E002443
:10497000305DFEF771FE641C0A2CF9DBC820FCF7E1
:10498000E7F8687A002800D0012070BD7C1E002066
:10499000F8020020E000002032220D490D48FDF70A
:1049A000B3FE0D4C4FF47A75606800F0AAF804214C
:1049B0000020FEF776FE064A04210020FEF709FFDC
:1049C000606800F087FF284601F0EAF8ECE7000095
:1049D00034020020B0020020000000200B460449F1
:1049E00000EB400001EB400106220248FEF7F4B95B
:1049F00056730008680200200CA0FFF7EFFDFFF7D8
:104A0000A1FF88B10FA000BFFFF7E8FD144D154CC2
:104A100000F0AAFA286808B1FBF778FC20680028A3
:104A2000F6D0FBF7B7FDF3E70FA0EDE741533630C3
:104A300038D6B8CEC6C4A3BFE9B2E2CAD4BFAACAA8
:104A4000BC0D0A004153363038D6B8CEC6C4A3BF19
:104A5000E9B3F5CABCBBAFCAA7B0DC0D0A000000C1
:104A6000CC000020D00000204153363038D6B8CEDC
:104A7000C6C4A3BFE9B3F5CABCBBAFB3C9B9A60DE1
:104A80000A00000038B504468DF800000223012218
:104A900069460248FEF7A0F9204638BDB002002062
:104AA00010B5002821D0114B0022001F196803E027
:104AB000814203D80A4649680029F9D152B11368E6
:104AC000841A9C4204D1006818441060104602E029
:104AD000506000E0186039B102680B1A934203D1AC
:104AE0000B681A4402604968416010BDF000002064
:104AF00010B504464068FFF7D3FF002060602070C7
:104B000010BD4FF0FF3101F077BC000010B5044834
:104B1000FDF78CFABDE8104000210148FDF78CBC80
:104B2000A401002070B53649842201F18400FBF70E
:104B300055FB84213248FBF76AFB0020401CC0B2C1
:104B40004228FBD92E4A42F2283384321946108873
:104B5000FFF7EDFE98B3508841F29411FFF7E7FE9E
:104B600068B30020022440F25621A2F884008B078B
:104B700032F81450A5F205158D4221D8641CE4B218
:104B800032F81450A5F265568E4205D8D2F88850F6
:104B900023FA00F6354308E0A5F205158D420FD83B
:104BA000D2F8885023FA00F6B543401C641CE4B2E6
:104BB000C0B2C2F88850422CDAD3012070BD01E0A7
:104BC0000020FBE710881946FFF7B1FE88B1508836
:104BD00040F6CA01FFF7ABFE58B190884FF40C7154
:104BE000FFF7A5FE28B132F8840F401C1080022088
:104BF000E4E704A200210420FEF7EBFDE0E700005B
:104C00006C1D0020716420657272656F00000000E9
:104C100010B5044600210846FEF743FDC4B1022C3E
:104C200018D03648364C4FF47A71B0F88800C0F38B
:104C3000072068283FD016DC38284FD00CDC02282B
:104C40002DD0102844D0182840D022281DD124E08F
:104C50002CA24CE02DA24AE04A283BD05A283BD057
:104C6000622812D115E0B02827D008DC90281ED089
:104C700098281ED0A2280AD0A82806D115E0C2285C
:104C80000FD0E0280FD0E22805D022A22FE023A2E7
:104C90002DE023A22BE023A229E023A227E023A2D8
:104CA00025E023A223E023A221E023A21FE023A2E8
:104CB0001DE023A21BE023A219E0206800281CD1DC
:104CC000FFF78CFE012020A2206010E01FA20EE062
:104CD00020A20CE020A20AE020A208E0206801281F
:104CE0000BD10420FFF77AFE00201DA220600021D6
:104CF000BDE810400846FEF76CBD10BDF01D002059
:104D0000C80000206572726F7200000072657065E5
:104D10007400000064656661756C74003100000009
:104D200032000000330000003400000035000000B5
:104D30003600000037000000380000003900000095
:104D4000300000002A000000230000007368616E3C
:104D5000670000007A756F0078696100796F7500EF
:104D60004F4B0000FFF7D2FE094C6068FFF7C9FE09
:104D7000A068FFF7C6FEFEF7BBF8A06800F0AAFD2A
:104D8000606800F0A7FD322000F00AFFEDE70000A8
:104D90000000002010B504460170084600F020F81D
:104DA000606010BDFCF70EFAFFF708F8FEF70EFB87
:104DB000FEF798FAFEF7FCFBFEF716FCFEF748FB41
:104DC000FEF78AFBFEF7C0FBFEF72AFCFEF760FB4E
:104DD00000F03CF8FEF7B4FA00F054F8FEE70000EB
:104DE000F0B50B30154D20F007010024144A0FE0F8
:104DF00003688B420BD38B4205D95E1A4318476870
:104E0000C3E9006700E04368136002C004E0021DCC
:104E100010680028ECD12046002802D1286808B18B
:104E20000020F0BD064A07481060074A121A22F017
:104E30000702C0E9002401202860D7E7F400002021
:104E4000F00000201420002010220020EFF3058045
:104E500058B9EFF3108040B909490868022801D019
:104E600030B109E0EFF3118030B16FF00500704709
:104E700001200860002070474FF0FF3070470000AD
:104E80008800002010B5EFF3058060B9EFF31080C3
:104E900048B90B490868022802D0012806D00BE067
:104EA000EFF3118040B16FF0050010BD02200860E3
:104EB00000F06EFF002010BD4FF0FF3010BD00006D
:104EC00088000020F0B585B04FEA01034FF00004E0
:104ED000EFF305810394A1BBEFF3108189BB214956
:104EE0000968022902D1EFF3118151BB48B3802632
:104EF00018218DF8104004AD42B3176807B13D4644
:104F000097691FB139467F1E382F02D21779FF07E4
:104F100002D0002005B0F0BD576907B1BE08D2F835
:104F200008C0BCF1000F0DD0D4685C2C18D31269F6
:104F30003AB137B18DE806103246294601F07FFBC1
:104F400003900DE0D7685FB912694AB903AACDE9A9
:104F50000012B2B2294601F045FB012800D00394AB
:104F60000398D7E7880000202DE9F04186B02F4C48
:104F70004FF47A7640F2DC582D4D2E4F49E000BFB9
:104F8000FEF748FD002844D10120FEF725FD00284A
:104F90003CD105AB632200210120FEF755FD78B11D
:104FA00025A0FFF71BFB31460220FFF717FDA06885
:104FB000401C411FA060022919D231460C2020E07C
:104FC00020A0FFF70BFB31460420FFF707FD002070
:104FD000A0602860BDF81630BDF814201DA16846F9
:104FE000FFF70CFB69461FA0FFF7F8FA0BE0C11FA3
:104FF000032902D231460B2003E00A2803DB3146A5
:105000000D20FFF7EBFC4046FBF7A2FD17A0FFF7D2
:10501000E5FA3868002806D12868012803D1164827
:1050200000680028ACD006B0BDE8F081D4000020B4
:10503000C8000020CC000020D1E9D6A4CAA7B0DC6B
:105040000D0A0000D6B8CEC6D1E9D6A4B3C9B9A618
:10505000000000002049443A256420B5C3B7D63A81
:105060002564200025730D0A00000000C7EBB0B4D2
:10507000CAD6D6B80D0A0000D00000202DE9F041B4
:10508000134C0F46054666692068001D00F058FC69
:10509000681C07D137B12168BDE8F0410D48091DF2
:1050A00000F09EBC20683544B5424560216805D2B9
:1050B000A068BDE8F041091D00F07ABC6068091DD8
:1050C00000F076FC206B854200D22563BDE8F081BC
:1050D00038000020880900202DE9F041054600F045
:1050E0008BFC2D4C2069401C206120682B4F10B197
:1050F000E06930B32BE025602069012827D1002624
:1051000006EB860007EB800000F044FC761C382E8E
:10511000F6D3234800F03EFC2148143000F03AFC5E
:105120001F48283000F036FC1D483C3000F032FCAF
:105130001B48503000F02EFC194860601430A0600D
:1051400005E02068E96AC06A884200D82560E06A04
:10515000401CE0626864E86AA169884200D9A061E5
:1051600000EB800007EB8000291D00F039FC00F007
:1051700063FCE06900280CD02068E96AC06A8842B4
:1051800007D208494FF080500860BFF34F8FBFF33C
:105190006F8FBDE8F081000038000020D8040020A7
:1051A0003809002004ED00E038B500F025FC104C73
:1051B000A068C8B90F4800F0EDFB0E48143000F0AD
:1051C000E9FB0C482060143060600A4B0020283353
:1051D000009003F1500210210A2000F0ECFEA060C4
:1051E00010B105A100F0A6FCBDE8384000F024BCD9
:1051F000740000209C090020546D725100000000D2
:1052000030B4026C0B46002A0BD0C1681144C16057
:105210004468A14201D30168C16030BC1846FAF766
:10522000DDBF30BC70472DE9F041856B1746044661
:105230000026026C82B1C7B1E068FAF7CFFFE168DF
:10524000206C091AE1602268914202D26168081A52
:10525000E060022F16D017E02068A8B9606801F05E
:1052600091FA0646002060600EE0A068FAF7B6FFEB
:10527000216CA0680844A0606168884204D320685B
:10528000A06001E005B16D1E6D1CA5633046BDE850
:10529000F08110B5044690F8590058B101280CD09F
:1052A00002280FD0502080F31188BFF34F8FBFF337
:1052B0006F8FFEE7206B00F0D3FB2046BDE8104067
:1052C00000F0CEBB10BD000010484FF44061420713
:1052D00006D0C01D0D4920F00700411AC1F54061FC
:1052E0000B4A00230144C2E900030839103A21F0B7
:1052F000070111604B600B600B1AC0E9001393604B
:105300004FF000405360D060704700006C110020E7
:105310009C000020144E154CA6F29C474FF080587C
:10532000DFF84C9012E000BF00F066FBF068C56843
:10533000281D00F005FB2069401E2061E068401E2A
:10534000E06000F079FB2846FFF7A3FFE068002843
:10535000EAD138680128F9D9C9F80080BFF34F8F26
:10536000BFF36F8FF2E700007409002038000020BF
:1053700004ED00E070B51D46049C51B1C4F8002056
:10538000C4E90F010121204600F048FE84F84C508A
:1053900070BD2460F4E72DE9F0470E46DDE909848D
:1053A0001746824691009946089DA522206BFAF780
:1053B00027FF6FF00301206B01EB8701084420F009
:1053C0000707780707D0502080F31188BFF34F8F6D
:1053D000BFF36F8FFEE72218315C82F83410315C26
:1053E00011B1401C1028F6D3002684F84360382DF4
:1053F00000D33725E562C4E91356201D00F0D5FA25
:1054000004F1180000F0D1FA2461C5F1380064629B
:10541000A061666584F858604A465146384600F0F7
:1054200047FA2060B8F1000F01D0C8F80040BDE88D
:10543000F087000030B5114900E011460A68824249
:10544000FBD34B685C18844203D140681844486021
:10545000084643681C18944209D1084C103C246843
:10546000A24209D052681A4442600A681268026077
:10547000814200D0086030BD0460F9E79C00002044
:1054800070B5002441600B4D0061914206D8D11ADD
:105490008269914206D2011D686807E09A4203D2F0
:1054A000994201D3012403E0011D286800F080FA2D
:1054B000204670BD7400002010B5044600F09CFA30
:1054C000A06B28B15FF0000400F0B6FA204610BDD2
:1054D0000124F9E730B589B0304D55E00498002833
:1054E00006DADDE90601059A9047049800284BDBAF
:1054F000069C606910B1201D00F022FA02A800F09D
:10550000B9F8024604980A283ED2DFE800F0050503
:10551000053D263705053D260598A169034601444A
:105520002046FFF7ADFF00B3616A20468847E06977
:10553000012829D1002000900598A1690023421874
:105540001946204601F064FA78B9502080F311889A
:10555000BFF34F8FBFF36F8FFEE70598A06128B1AF
:10556000811813462046FFF78BFF0DE0502080F393
:105570001188BFF34F8FBFF36F8FFEE794F82C00B5
:1055800010B9204600F06CFA002204A9A86800F0C7
:1055900097FE0028A2D109B030BD000074000020A1
:1055A0002DE9FC410F46054600F036FC01A800F04D
:1055B00061F80446019818B101F098F9BDE8FC8142
:1055C000224EAFB170680068A8B30027291B3A4685
:1055D000B06800F0C3FA01F089F90028EED11C4947
:1055E0004FF080500860BFF34F8FBFF36F8FE5E738
:1055F000A542EBD801F07AF930682746C068C46844
:10560000201D00F09DF9E069012810D1A0692B460A
:1056100041193A462046FFF733FF40B100200346C8
:10562000014600902A46204601F0F2F920B1616A55
:1056300020468847C2E707E0502080F31188BFF377
:105640004F8FBFF36F8FFEE70127BFE77400002085
:1056500004ED00E006484168096829B14168C9685D
:10566000C9684968016370474FF0FF31FAE70000ED
:105670003800002070B5054601F01AF8064E0446C1
:105680003069844203D200F009F8012000E00020D4
:1056900028602046346170BD74000020F8B5194DB3
:1056A0001FE0C068C4680668201D00F049F9616AFF
:1056B00020468847E069012813D1A0693044B042F0
:1056C00006D924616060211D286800F071F908E0A6
:1056D00000200346014600903246204601F098F92A
:1056E00038B1286801680029DBD16968C5E9001074
:1056F000F8BD502080F31188BFF34F8FBFF36F8F39
:10570000FEE700007400002008484068401C4FF08D
:10571000500080F3118804D0BFF34F8FBFF36F8F19
:10572000FEE7BFF34F8FBFF36F8FFEE7A4000020AB
:10573000074C2068016841B1C0680021D0F8000022
:10574000FFF72EFFFFF7C6FEF3E701210020F7E782
:10575000740000202DE9F041044600F04DF994F961
:10576000455004F1240609E0606A48B1304601F072
:1057700085F808B100F08AFA6D1E6DB2002DF3DCD9
:105780004FF0FF3684F8456000F056F900F034F928
:1057900094F9445004F1100709E0206948B13846F3
:1057A00001F06CF808B100F071FA6D1E6DB2002DB9
:1057B000F3DC84F84460BDE8F04100F03DB900003E
:1057C0002DE9F0410546002700F026FB314E3068F8
:1057D00008B9FFF779FDF06805424BD1C5B308352C
:1057E00068070ED005F00700C0F1080005446807FF
:1057F00007D0502080F31188BFF34F8FBFF36F8F16
:10580000FEE72DB37068854234D822481030014637
:105810000C6801E020460C466168A94202D221686A
:105820000029F7D131688C4224D0076821680160D3
:1058300060680837411B10290FD96019420708D04A
:10584000502080F31188BFF34F8FBFF36F8FFEE7B7
:1058500010E041606560FFF7EDFD61687068401A17
:105860007060B268904200D2B060F06801430020DE
:10587000C4E9000101F03AF8780707D0502080F31E
:105880001188BFF34F8FBFF36F8FFEE73846BDE837
:10589000F08100008C0000200449086818B10868F5
:1058A000026D521C02650868704700003800002035
:1058B00010B5031F4FF080741C601B1F21F0010105
:1058C0001960191F024B0B60143940380A6010BD73
:1058D0000957000800231A46194600F0E3BB0000F0
:1058E000044800210171C170017081708421024857
:1058F000FAF78DBCB80000206C1D0020044A0B464E
:105900000349D070BE30107105220248FDF764BA19
:10591000C200002068020020084C4FF47A75A0688D
:10592000FFF7EFF829461420FFF7E8FFA068FFF71C
:10593000D1FFE06800F05AF9F1E700000000002014
:10594000D0E9013201699A60D0E901235A604A68BE
:10595000824201D182684A60002202610868401ECA
:105960000860086870470000034B036003F15C00A7
:105970000860802010607047B40A0020044B036068
:1059800003F15C0008604FF4807010607047000005
:10599000100D002000F108014FF0FF32C0E90112A4
:1059A000C160016100210160704700210161704701
:1059B00030B50B685A1C02D000F1080202E00269FF
:1059C00004E02246546825689D42FAD953684B602A
:1059D00099608A60516008610168491C016030BDAE
:1059E00042684A6093688B6093685960916008616F
:1059F0000168491C01607047502080F31188BFF393
:105A00004F8FBFF36F8F0A494868401C48600128D8
:105A10000CD10848006810F0FF0F07D0502080F329
:105A20001188BFF34F8FBFF36F8FFEE77047000001
:105A3000A400002004ED00E00849486828B1401E99
:105A4000486001D180F311887047502080F311889D
:105A5000BFF34F8FBFF36F8FFEE70000A40000205D
:105A600070B5002827D0144DA0F108046168E868DB
:105A7000014207D1502080F31188BFF34F8FBFF34D
:105A80006F8FFEE722683AB1502080F31188BFF390
:105A90004F8FBFF36F8FFEE78143616000F0BCF969
:105AA00060686968084468602046FFF7C3FCBDE889
:105AB000704000F01BBF70BD8C0000204FF0E02054
:105AC00000210161816105494FF47A720968B1FBD7
:105AD000F2F1491E41610721016170473400002045
